:020000040000FA
:10000000C00CFD1F154A0000294A00002B4A0000C1
:100010002D4A00002F4A0000314A00000000000075
:10002000000000000000000000000000334A000053
:10003000354A000000000000374A0000394A00003D
:100040003B4A00003B4A00003B4A00003B4A00009C
:100050003B4A00003B4A00003B4A00003B4A00008C
:100060003B4A00003B4A00003B4A00003B4A00007C
:100070003B4A00003B4A00003B4A00003B4A00006C
:100080003B4A00003B4A00003B4A00003B4A00005C
:100090003B4A00003B4A00003B4A00003B4A00004C
:1000A0003B4A00003B4A00003B4A00003B4A00003C
:1000B0003B4A00003B4A00003B4A00003B4A00002C
:1000C0003B4A00003B4A00003B4A00003B4A00001C
:1000D0003B4A00003B4A00003B4A00003B4A00000C
:1000E0003B4A00003B4A00003B4A00003B4A0000FC
:1000F0003B4A00003B4A00003B4A00003B4A0000EC
:100100003B4A00003B4A00003B4A00003B4A0000DB
:100110003B4A00003B4A00003B4A00003B4A0000CB
:100120003B4A00003B4A00003B4A00003B4A0000BB
:100130003B4A00003B4A00003B4A00003B4A0000AB
:100140003B4A00003B4A00003B4A00003B4A00009B
:100150003B4A00003B4A00003B4A00003B4A00008B
:100160003B4A00003B4A00003B4A00003B4A00007B
:100170003B4A00003B4A00003B4A00003B4A00006B
:100180003B4A00003B4A00003B4A00003B4A00005B
:100190003B4A00003B4A00003B4A00003B4A00004B
:1001A0003B4A00003B4A00003B4A00003B4A00003B
:1001B0003B4A00003B4A00003B4A00003B4A00002B
:1001C0003B4A00003B4A00003B4A00003B4A00001B
:1001D0003B4A00003B4A00003B4A00003B4A00000B
:1001E0003B4A00003B4A00003B4A00003B4A0000FB
:1001F0003B4A00003B4A00003B4A00003B4A0000EB
:10020000970B00003B4A00003B4A00003B4A0000BD
:100210003B4A00008F0700003B4A00003B4A0000B9
:100220003B4A00003B4A00003B4A00003B4A0000BA
:100230003B4A00003B4A00003B4A00003B4A0000AA
:1002400000F002F800F03CF80AA090E8000C8244AC
:100250008344AAF10107DA4501D100F031F8AFF289
:10026000090EBAE80F0013F0010F18BFFB1A43F094
:1002700001031847504A0000704A0000103A24BF9A
:1002800078C878C1FAD8520724BF30C830C144BFFB
:1002900004680C607047000000230024002500263D
:1002A000103A28BF78C1FBD8520728BF30C148BFD9
:1002B0000B6070471FB504F000FD1FBD10B510BDE9
:1002C00004F0C2FC1146FFF7F5FF00F018F804F047
:1002D000E0FC03B4FFF7F2FF03BC04F0E7FC00000E
:1002E00038B50446204604F08DFC85B20020034654
:1002F0002A4621460090324804F078F938BD8CB087
:1003000000200B904FF4E130029000208DF80C009B
:100310008DF80D008DF80E002A4804902A480590AB
:100320008020ADF818004000ADF81A000120ADF8AB
:100330001C0000208DF81E008DF81F008DF8200095
:1003400003208DF8210000208DF8220009900A90EA
:100350001E4908601E48806840F006001C498860FD
:100360001C48006840F040001A49086002A914487F
:1003700002F01BFB08B100BFFEE717A0FFF7B0FFBC
:100380001CE0002001230BAA0F4900900C4804F048
:1003900012FA40B1002003460C221AA1009008482E
:1003A00004F024F90AE000200346012206490090E7
:1003B000034804F01BF9002003490870E1E700003E
:1003C00000800340A400FD1F2401FD1F00F506402E
:1003D00000F006401CF6064048692C2054657374F2
:1003E000696E67207468652053657269616C20636B
:1003F0006F6E6E656374696F6E2E2E2E2E2E2E21FB
:100400000000000052656164204572726F720D0A2F
:10041000000000000122E94B1A70E94A126842F01C
:100420000402E74B1A600122E64B1A70E44A126894
:1004300042F48062E24B1A600122E34B83F8B82257
:10044000DF4A126842F48072DD4B1A600122DE4BF3
:1004500083F8B822DA4A126842F01002D84B1A60C8
:100460000122D94B83F88421D54A126842F0400218
:10047000D34B1A600122D34B08331A70D34B1A7036
:100480000022D34B1A70D34A926922F00102D14B59
:100490009A611A46926822F07C429A600C2807D131
:1004A0004FF4B073CB4A926863F31942C94B9A6018
:1004B000182806D14023C74A926863F31942C54BF6
:1004C0009A6030B92023C34A926863F31942C14B42
:1004D0009A601C2806D10023BE4A926863F3194231
:1004E000BC4B9A60BB4A926822F48042B94B9A6036
:1004F0001A46926822F400529A601A46926822F4D0
:1005000080529A601A46926822F4006202F50062F4
:100510009A601A46926822F480629A601A4692683B
:1005200022F400729A601A46926822F480729A60ED
:100530001A46926822F080029A601A46926822F067
:1005400010029A601A46926822F0080208329A60F5
:100550001A46926822F004029A601A46926822F0C3
:100560000202921C9A601A46926822F001029A6076
:100570001A46D26822F4F84202F58062DA601A461E
:10058000D26822F4787202F5F072DA601A46D26804
:1005900022F01F020F32DA6003221A611A46126A31
:1005A00022F0006202F100621A621A46126A22F018
:1005B000804202F180421A621A46126A22F0005208
:1005C00002F100521A621A46126A22F0806202F1A7
:1005D00080621A6239B91A46126A22F0007202F178
:1005E00000721A6207E0012905D17A4A126A22F0E4
:1005F0000072784B1A6231B9764A126A22F0807220
:10060000744B1A6209E0012907D1724A126A22F07A
:10061000807202F180726F4B1A626E4A126A22F087
:10062000805202F180526B4B1A621A46126A22F40F
:10063000001202F500121A621A46126A22F480129F
:1006400002F580121A621A46126A22F4002202F59A
:1006500000221A6239B91A46126A22F4003202F5EF
:1006600000321A6207E0012905D15A4A126A22F4BF
:100670000032584B1A62574A126A22F4802202F55D
:100680008022544B1A621A46126A22F4803202F512
:1006900080321A621A46126A22F030021A627047D9
:1006A0004C48806920F0807000F180704949886171
:1006B0000846806820F020008860704745488069BF
:1006C00020F4803000F58030424988610846806817
:1006D00020F0400088607047411E3E4A126A61F374
:1006E00003023C490A627047411E3A4A126A61F3AA
:1006F0000B2238490A627047012037490870364991
:100700002039087070470120334940310870324960
:100710002031087070472F48806920F00100401C8C
:100720002C49886170472B48806920F001002949D5
:1007300088617047274800687047264948607047BD
:1007400070B5044625480460752000F02BF875202C
:10075000002809DB00F01F020121914042099200AC
:1007600002F1E022C2F8001100BF7520022100282A
:1007700004DB0A07130E1A4A135406E00A07150E83
:10078000184A00F00F031B1FD55400BF70BD10B5F1
:100790001248006828B1114800688047752000F0B1
:1007A00001F810BD002807DB00F01F020121914075
:1007B0000D4A430942F82310704700004024784254
:1007C00060F60640B402DE420000DE42B041DE4286
:1007D00000007A4200C006402005D8421800FD1FE4
:1007E00000E400E018ED00E080E200E010B9F34A18
:1007F000916003E0012801D1F04A5162704710B9BD
:10080000EE4AD16003E0012801D1EC4A91627047C1
:10081000A0B9EA4A526822F0FF02121DE74B5A6063
:100820001A46526822F47F4202F580625A601A46E4
:10083000928892B202F580325A6015E0012813D1F5
:10084000DE4A126A22F0FF02121DDC4B1A621A46BF
:10085000126A22F47F4202F580621A621A46128CF2
:1008600092B202F580321A6270470146C1F3036208
:10087000C1F303535A40C1F303435A40C1F3033356
:100880005A40C1F303235A40C1F3031382EA030021
:10089000704700B5CA480068C0F3005040B9C84866
:1008A000006820F4801000F58010C649C1F82001CE
:1008B000C548007A012807D10420C349087200BF47
:1008C000C148007A0028FBD1BC48006820F0030032
:1008D000C01CBA4908600846006820F00C00086097
:1008E0000846006820F010001030086008460068D4
:1008F00020F0E000203008600846006820F44070D6
:1009000000F5007008600846006820F4E05000F52B
:10091000806008600846006820F4604000F52040D0
:1009200008600846006820F47C1000F5801008601C
:100930000846006820F4800000F580000860084642
:10094000006820F4000008600846006820F040704D
:1009500000F1807008600846006820F04060086080
:100960000868FFF782FF9549096860F31F71934893
:100970000160406820F0FF008030904948600846E0
:10098000406820F47F4000F50040486008468088B9
:1009900080B200F5803048608C4888608C48C86020
:1009A00008464968016188490860DB2048600846BC
:1009B000806A40F0006088620846806E40F0006007
:1009C00088667E48C06920F00300C01C7B49C8616E
:1009D0000846C06920F00C00C8610846C06920F0D4
:1009E00010001030C8610846C06920F0E0002030D7
:1009F000C8610846C06920F4407000F50070C86105
:100A00000846C06920F4E05000F5A050C8610846CF
:100A1000C06920F4604000F50050C8610846C06914
:100A200020F47C1000F58010C8610846C06920F4ED
:100A3000800000F58000C8610846C06920F400000D
:100A4000C8610846C06920F0407000F18070C8613C
:100A50000846C06920F04060C861C869FFF705FF1B
:100A60005649C96960F31F715448C161006A20F09A
:100A7000FF008030514908620846006A20F47F4038
:100A800000F5004008620846008C80B200F5803016
:100A900008624F49091F494841624E498162014637
:100AA000096AC1624C48484948600846806A40F07B
:100AB000806088620846806E40F08060886674209E
:100AC000487210200872202008728020087200BD31
:100AD000014641B93C48806CC00E10B100BF0120F6
:100AE00070470020FCE7012908D13748806C800E50
:100AF00010B100BF0120F3E70020F1E70020EFE78D
:100B000010B504466CB93048A830006840F0006069
:100B10002D49C1F8A8000846806E40F00060886644
:100B20000EE0012C0CD12848A830006840F080600D
:100B30002549C1F8A8000846806E40F080608866AC
:100B4000752000F030F810BD70B5044623480460ED
:100B5000702000F028F87020002809DB00F01F0248
:100B6000012191404209920002F1E022C2F80011F5
:100B700000BF70200321002804DB0A07130E184A67
:100B8000135406E00A07150E164A00F00F031B1F48
:100B9000D55400BF70BD10B51048006810B10F48A3
:100BA0000068804710BD002807DB00F01F0201210C
:100BB00091400D4A430942F823107047240AFD1F53
:100BC00020C1034000C00340001006402404FD1F64
:100BD00004C006402406FD1FDA001C003C00FD1F77
:100BE00000E400E018ED00E080E200E0002817DB00
:100BF00000F01F0201219140B74A430942F8231037
:100C000000BF00BF00BFBFF34F8F00BF00BF00BFDA
:100C100000BF00BF00BFBFF36F8F00BF00BF00BFAA
:100C2000704710B5002804DB0A07130EAB4A1354B3
:100C300006E00A07140EAA4A00F00F031B1FD45443
:100C400010BD10B50246002092B100210DE001EB6D
:100C50008103A44C54F82330934205D101EB810366
:100C600004EB8303181D02E0491C0029EFD000BFEC
:100C700010BD10B504469C48844209D13D2000F0C7
:100C80001FF93D2000F00FF90F213D20FFF7C9FFAC
:100C9000002010BD10B504469348844209D13C2081
:100CA00000F00EF93C2000F0FEF80F213C20FFF789
:100CB000B8FF002010BD10B504468B48844213D104
:100CC0003D2000F0FDF83D20FFF790FF0F213D2073
:100CD000FFF7A7FF3C2000F0F3F83C20FFF786FF6A
:100CE0000F213C20FFF79DFF002010BD70B5054689
:100CF0000C4635B12CB1606818B128466268E168CD
:100D0000904770BD70B505460C4635B12CB12068D2
:100D100018B128462268E168904770BD70B5054655
:100D20000C4635B12CB1A06818B12846D4E902218F
:100D3000904770BD6D490968490906291DD2DFE851
:100D400001F00305071C1719694818E0684816E008
:100D50006649C96B01F03F01491C654A01FB02F07D
:100D60006249896BC1F30311491CB0FBF1F006E045
:100D7000604804E04FF4004001E0002000BF00BFE5
:100D80005A49096901F00701072917D2DFE801F084
:100D90000406080C0E12140000BF11E040080FE01A
:100DA0000321B0FBF1F00BE0800809E00621B0FB65
:100DB000F1F005E0C00803E0000901E0002000BFF9
:100DC00000BF4A49C96901F0030131B1012906D0C8
:100DD000022906D0032908D105E000BF07E040083A
:100DE00005E0800803E0C00801E000BF00BF00BFCD
:100DF000704710B504460CB9002305E0FFF79AFFD1
:100E00000346B3FBF4F35B1E184610BD10B5044651
:100E10000CB9002305E0FFF78DFF0346B3FBF4F3A5
:100E2000DB1E184610BD2DE9F04107460D46384639
:100E3000FFF707FF06460EB9042401E035600024E1
:100E40002046BDE8F0812DE9F04107460D463846C1
:100E5000FFF7F7FE06460EB9042401E07560002492
:100E60002046BDE8F0812DE9F04107460D463846A1
:100E7000FFF7E7FE06460EB9042401E0B560002442
:100E80002046BDE8F0812DE9F04107460D46384681
:100E9000FFF7D7FE06460EB9042401E0F5600024F2
:100EA0002046BDE8F081002809DB00F01F02012187
:100EB00091404209920002F1E022C2F8001170470D
:100EC000002807DB00F01F02012191400A4A430974
:100ED00042F823107047000080E100E000E400E0E9
:100EE00018ED00E04000FD1F0080034000000140BD
:100EF00000093D00A086010080E200E010B5024636
:100F0000002092B100210DE001EBC103FE4C54F82A
:100F10003330934205D101EBC10304EBC303181D29
:100F200002E0491C0029EFD000BF10BD0246084670
:100F30008A4200DA104670472DE9F04707460D4611
:100F400005F1240495F83E00012808D13A7EC2F14B
:100F5000100291B26089FFF7E9FF064600E0012622
:100F600042E04FF0000895F84100032802DC4FF002
:100F700001090FE095F841000B2802DC4FF002094F
:100F800008E095F841000D2802DC4FF0030901E06C
:100F90004FF004091AE04FEA082821892068405CD4
:100FA00040EA08082089401CA18890FBF1F201FB6F
:100FB000120020816089401E6081E089401EE0812E
:100FC000A089401CA081761EA9F10109B9F1000F8A
:100FD00001D0002EDFD195F841000B2802DCA7F8E4
:100FE000088001E0C7F80880002EBAD1BDE8F0877C
:100FF0002DE9F04104460E464FF00008354605F154
:10100000240795F84000032819D1607820F00400E7
:101010006070607820F001006070A08C20F001000A
:10102000A084607820F00100401C6070286810B136
:10103000B88929688847002085F840002EE02946B5
:101040002046FFF779FF788908B94FF00108B8F119
:10105000010F23D195F83E00012804D1607D20F0D6
:101060000201617503E0607820F008006070F88983
:10107000A0B995F83F00212808D1032085F8400049
:10108000607820F00400001D607007E0286810B14F
:10109000B88929688847002085F84000BDE8F081BC
:1010A000F8B5034601F1100091F84150032D01DC21
:1010B00001220CE091F841500B2D01DC022206E0E8
:1010C00091F841500D2D01DC032200E004220024A0
:1010D00091F83E50012D32D12DE091F841500B2D69
:1010E00002DC1D89009501E09D6800954589868890
:1010F000B5421EDA17E0551EEAB2E600009DF54043
:101100000095651CECB2009DC7880668F555C5883A
:101110006D1CC580C5888688B54201D10025C58073
:1011200045896D1C458145898688B54203DA12B12F
:10113000E1E7012505745D7E002DCED12EE091F80A
:1011400041500B2D02DC1D89009501E09D68009542
:1011500045898688B5421FDA17E0551EEAB2E600D7
:10116000009DF5400095651CECB2009DC78806689F
:10117000F555C5886D1CC580C5888688B54201D1E6
:101180000025C58045896D1C458145898688B54205
:1011900004DA002AE1D101E001250574F8BDF8B5B3
:1011A00005460E4634466879009094F83F0000F0FA
:1011B000F000102804D0202808D0402812D10BE0DD
:1011C0009DF8000000F0380000900EE09DF800004F
:1011D00000F00800009008E09DF8000000F0180002
:1011E000009002E00020009000BF00BF9DF80000CA
:1011F00020B1687920F0800080306871214628464F
:10120000FFF74EFF606840B104F110077889A18FA5
:10121000884202DB788961688847F8BDF8B50446E2
:101220000D462E46207800F0E000602812D160794B
:10123000C0F3401070B120890090607920F0200048
:101240006071607920F0800080306071F06808B1D2
:10125000F0688047F8BD7CB504460D46002001903B
:1012600000909DF8040020F0200001909DF80400FB
:1012700020F0100001909DF8040020F008000830D4
:1012800001909DF8040020F00400001D01909DF8DD
:10129000040020F00200801C01909DF8040020F062
:1012A0000100401C01909DF8000020F040000090DB
:1012B0009DF8000020F0800000909DF8000020F0D4
:1012C000100000909DF8000020F0080000909DF8AC
:1012D000000020F0040000909DF8000020F00200C3
:1012E00000909DF8000020F0010000909DF804009F
:1012F000217D60F3000121759DF804004108207DE7
:1013000061F34100207501E05400FD1F9DF80400C9
:101310008108207D61F3820020759DF80400C108DA
:10132000207D61F3C30020759DF804000109207D34
:1013300061F3041020759DF804004109207D61F3DC
:10134000451020759DF804008109207D61F3861009
:1013500020759DF80400C109207D61F3C710207538
:101360009DF80000617D60F3000161759DF800004B
:101370004108607D61F3410060759DF800008108BF
:10138000607D61F3820060759DF80000C108607D9A
:1013900061F3C30060759DF800000109607D61F391
:1013A000041060759DF800004109607D61F34510EF
:1013B00060759DF800008109607D61F3861060759D
:1013C0009DF80000C109607D61F3C71060751021B0
:1013D0002846FFF7ABFD60767CBD2DE9F04186B075
:1013E00004460E460020049020799DF8081060F312
:1013F00000010291207941089DF8080061F3410045
:101400000290207981089DF8080061F38200029023
:101410002079C1089DF8080061F3C300029020798B
:1014200001099DF8080061F3041002902079410938
:101430009DF8080061F345100290207981099DF81C
:10144000080061F3861002902079C1099DF8080018
:1014500061F3C710029060789DF8041060F30001FA
:101460000191607841089DF8040061F3410001900A
:10147000607881089DF8040061F382000190607833
:10148000C1089DF8040061F3C30001906078010970
:101490009DF8040061F304100190607841099DF803
:1014A000040061F345100190607881099DF8040003
:1014B00061F3861001906078C1099DF8040061F322
:1014C000C710019006F124059DF80800C0F3400004
:1014D00000287DD09DF8080020F0020002909DF8C1
:1014E0000800217960F3000121719DF8080041088E
:1014F000207961F3410020719DF80800810820796E
:1015000061F3820020719DF80800C108207961F321
:10151000C30020719DF808000109207961F30410CF
:1015200020719DF808004109207961F34510207170
:101530009DF808008109207961F3861020719DF8DB
:101540000800C109207961F3C71020719DF80400DB
:1015500020F0080001909DF8040020F04000019068
:101560009DF80400617860F3000161709DF804004B
:101570004108607861F3410060709DF804008108C3
:10158000607861F3820060709DF80400C1086078A3
:1015900061F3C30060709DF804000109607861F395
:1015A000041060709DF804004109607861F34510F3
:1015B00060709DF804008109607861F386106070A6
:1015C0009DF80400C109607861F3C710607000E005
:1015D0001BE0607C00909DF8000020F080000090EF
:1015E0009DF8000060749DF8000020F080008030BD
:1015F00000909DF800006074306810B1288931684F
:101600008847002086F8400093E1A888298988420D
:1016100004D19DF8040000F0010028B99DF80800ED
:10162000C0F38010002851D09DF8040020F0800005
:1016300001909DF8040020F0400001909DF8040006
:1016400020F0040001909DF8040020F001000190BA
:101650009DF8040020F00800083001909DF8040077
:10166000617860F3000161709DF8040041086078C2
:1016700061F3410060709DF804008108607861F3B7
:10168000820060709DF80400C108607861F3C300B7
:1016900060709DF804000109607861F304106070C7
:1016A0009DF804004109607861F3451060709DF871
:1016B00004008109607861F3861060709DF8040071
:1016C000C109607861F3C710607032E160790390FE
:1016D00096F83E00012831D1607D9DF8101060F32E
:1016E00000010491607D41089DF8100061F3410004
:1016F0000490607D81089DF8100061F382000490E1
:10170000607DC1089DF8100061F3C3000490607D06
:1017100001099DF8100061F304100490607D0490AD
:10172000607D81099DF8100061F386100490607D52
:10173000C1099DF8100061F3C71004909DF80C00DA
:10174000C0F3400028B99DF81000C0F380000028C5
:101750007ED096F83E0001287BD1AA882B89D21A28
:1017600090B2227EC2F1100291B2FFF7DFFB074672
:101770004FF000080AE029892868405C2081288908
:10178000401C288108F101001FFA80F8B845F2DBFF
:10179000607D9DF8101060F300010491607D4108A8
:1017A0009DF8100061F341000490607D81089DF870
:1017B000100061F382000490607DC1089DF8100064
:1017C00061F3C3000490607D01099DF8100061F38E
:1017D00004100490607D0490607D81099DF81000E4
:1017E00061F386100490607DC1099DF8100061F3DB
:1017F000C71004909DF8100020F004000490A88801
:101800002989884204D19DF8100020F0020004903C
:101810009DF81000617D60F3000161759DF8100076
:101820004108607D61F3410060759DF810008108FA
:10183000607D61F3820060759DF81000C108607DD5
:1018400061F3C30060759DF810000109607D01E03F
:101850002EE018E061F3041060759DF81000410956
:10186000607D61F3451060759DF810008109607D11
:1018700061F3861060759DF81000C109607D61F309
:10188000C710607514E029892868405C2081288988
:10189000401C2881A8882989884209D120680590A0
:1018A0009DF8140020F0040005909DF814002070AD
:1018B0009DF8040020F0400001909DF8040020F005
:1018C000010001909DF80400617860F300016170EF
:1018D0009DF804004108607861F3410060709DF854
:1018E00004008108607861F3820060709DF8040054
:1018F000C108607861F3C30060709DF804000109BD
:10190000607861F3041060709DF80400410960780C
:1019100061F3451060709DF804008109607861F3FF
:10192000861060709DF80400C109607861F3C710EB
:10193000607006B0BDE8F0817FB504460E462079A0
:101940009DF8081060F300010291207941089DF88C
:10195000080061F341000290207981089DF8080099
:1019600061F3820002902079C1089DF8080061F3BC
:10197000C3000290207901099DF8080061F304106A
:101980000290207941099DF8080061F3451002900A
:10199000207981099DF8080061F386100290207972
:1019A000C1099DF8080061F3C710029060789DF8A6
:1019B000041060F300010191607841089DF8040073
:1019C00061F341000190607881089DF8040061F3A3
:1019D000820001906078C1089DF8040061F3C300A3
:1019E0000190607801099DF8040061F304100190F2
:1019F000607841099DF8040061F34510019060781A
:101A000081099DF8040061F3861001906078C10996
:101A10009DF8040061F3C71001906079039006F10E
:101A200010059DF80800C0F34000002861D09DF823
:101A3000080020F0020002909DF80800217960F370
:101A4000000121719DF808004108207961F34100EF
:101A500020719DF808008108207961F382002071CF
:101A60009DF80800C108207961F3C30020719DF83A
:101A700008000109207961F3041020719DF8080025
:101A80004109207961F3451020719DF80800810912
:101A9000207961F3861020719DF80800C109207932
:101AA00061F3C71020719DF8040020F00800019038
:101AB0009DF8040020F004000190607C00909DF8E7
:101AC000000020F0800000909DF8000060749DF8F8
:101AD000000020F08000803000909DF800006074CD
:101AE000706810B1E88871688847002086F8400067
:101AF00085E09DF80C00C0F38000002871D09DF8AF
:101B00000800C00900286CD10FE0607903909DF8AF
:101B10000C00C0F3800038B12089EA882968885415
:101B2000E888401CE88000E003E0E888A988884253
:101B3000EBDB00BFE888A988884260D19DF80400EB
:101B400020F0800001909DF8040020F0200001901A
:101B50009DF8040020F00800083001909DF808006E
:101B6000C0F38000D8B39DF8080020F00400029074
:101B70009DF80800217960F3000121719DF80800AB
:101B80004108207961F3410020719DF80800810827
:101B9000207961F3820020719DF80800C108207946
:101BA00061F3C30020719DF808000109207961F3F9
:101BB000041020719DF808004109207961F3451057
:101BC00020719DF808008109207961F38610207149
:101BD0009DF80800C109207961F3C71020710EE05B
:101BE000FFE79DF80C00C0F3C00040B19DF80C0069
:101BF00020F08000803003909DF80C0060719DF80B
:101C0000040020F0400001909DF8040020F0010045
:101C100001909DF80400617860F3000161709DF807
:101C200004004108607861F3410060709DF8040091
:101C30008108607861F3820060709DF80400C1083B
:101C4000607861F3C30060709DF80400010960785A
:101C500061F3041060709DF804004109607861F33D
:101C6000451060709DF804008109607861F386106A
:101C700060709DF80400C109607861F3C71060705E
:101C80007FBDFEB504460D4660789DF8041060F3F4
:101C900000010191607841089DF8040061F3410062
:101CA0000190607881089DF8040061F38200019042
:101CB0006078C1089DF8040061F3C300019060786A
:101CC00001099DF8040061F3041001906078410956
:101CD0009DF8040061F345100190607881099DF83A
:101CE000040061F3861001906078C1099DF804003A
:101CF00061F3C710019020799DF8001060F3000196
:101D00000091207941089DF8000061F341000090A6
:101D1000207981089DF8000061F38200009020790D
:101D2000C1089DF8000061F3C3000090207901090B
:101D30009DF8000061F304100090207941099DF89E
:101D4000000061F345100090207981099DF80000A2
:101D500061F3861000902079C1099DF8000061F3BD
:101D6000C71000909DF80400C00900283ED19DF8DE
:101D70000400C0F38010C8B39DF800000121B1EB4E
:101D8000D01F33D1206802909DF80000C0F30010EE
:101D900098B1A86820B10020A9688847064600E0ED
:101DA000002626819DF8080020F0040002909DF88E
:101DB000040020F01000019015E09DF8040020F0D0
:101DC0002000203001909DF8080020F008000290CB
:101DD0009DF8040020F0100010300190A86810B1A8
:101DE0000120A96888479DF8080020709DF804002C
:101DF00020F0400001909DF8040020F001000190C7
:101E00009DF80400617860F3000161709DF80400A2
:101E10004108607861F3410060709DF8040081081A
:101E2000607861F3820060709DF80400C1086078FA
:101E300061F3C30060709DF804000109607861F3EC
:101E4000041060709DF804004109607861F345104A
:101E500060709DF804008109607861F386106070FD
:101E60009DF80400C109607861F3C7106070FEBD81
:101E70007FB504460E4620799DF8041060F30001FA
:101E80000191207941089DF8040061F3410001901F
:101E9000207981089DF8040061F382000190207987
:101EA000C1089DF8040061F3C30001902079010985
:101EB0009DF8040061F304100190207941099DF818
:101EC000040061F345100190207981099DF8040018
:101ED00061F3861001902079C1099DF8040061F337
:101EE000C71001906079039006F110059DF8040079
:101EF000C0F34000002857D09DF8040020F00200F5
:101F000001909DF80400217960F3000121719DF892
:101F100004004108207961F3410020719DF804001C
:101F20008108207961F3820020719DF80400C108C6
:101F3000207961F3C30020719DF804000109207924
:101F400061F3041020719DF804004109207961F3C8
:101F5000451020719DF804008109207961F38610F5
:101F600020719DF80400C109207961F3C710207128
:101F7000607C00909DF8000020F0800000909DF8AB
:101F8000000060749DF8000020F080008030009018
:101F90009DF800006074706810B1E8887168884727
:101FA000002086F8400026E19DF80400C0F3801070
:101FB000002879D060789DF8081060F30001029144
:101FC000607841089DF8080061F341000290607854
:101FD00081089DF8080061F3820002906078C108D2
:101FE0009DF8080061F3C3000290607801099DF834
:101FF000080061F304100290607841099DF8080020
:1020000061F345100290607881099DF8080061F342
:10201000861002906078C1099DF8080061F3C7102E
:1020200002909DF8080020F0400002909DF8080002
:1020300020F0010002909DF80800617860F3000133
:1020400061709DF808004108607861F3410060709C
:102050009DF808008108607861F3820060709DF847
:102060000800C108607861F3C30060709DF8080043
:102070000109607861F3041060709DF8080041095F
:10208000607861F3451060709DF808008109607800
:1020900061F3861060709DF80800C109607861F3F3
:1020A000C7106070A7E0FFE760789DF8081060F344
:1020B00000010291607841089DF8080061F3410039
:1020C0000290607881089DF8080061F38200029018
:1020D0006078C1089DF8080061F3C3000290607841
:1020E00001099DF8080061F304100290607841092D
:1020F0009DF8080061F345100290607881099DF811
:10210000080061F3861002906078C1099DF808000C
:1021100061F3C71002909DF80C00C0F3800010B36B
:102120009DF80400C009F0B90FE0607903909DF8B4
:102130000C00C0F3800038B12089EA8829688854EF
:10214000E888401CE88000E003E0E888A98888422D
:10215000EBDB00BFE888A988884205D19DF808001C
:1021600020F02000029005E09DF8080020F02000FB
:10217000203002909DF8080020F0400002909DF869
:10218000080020F0010002909DF80800617860F3DB
:10219000000161709DF808004108607861F341001A
:1021A00060709DF808008108607861F382006070BB
:1021B0009DF80800C108607861F3C30060709DF865
:1021C00008000109607861F3041060709DF8080050
:1021D0004109607861F3451060709DF8080081093D
:1021E000607861F3861060709DF80800C10960781E
:1021F00061F3C71060709DF80C00C0F3C00040B1DF
:102200009DF80C0020F08000803003909DF80C00B9
:1022100060717FBD2DE9F04186B004460E46002076
:10222000049020799DF8041060F300010191207959
:1022300041089DF8040061F3410001902079810874
:102240009DF8040061F3820001902079C1089DF897
:10225000040061F3C3000190207901099DF8040096
:1022600061F304100190207941099DF8040061F3A5
:1022700045100190207981099DF8040061F38610D2
:1022800001902079C1099DF8040061F3C710019005
:1022900006F12405A8882989884205D09DF8040004
:1022A000C0F34000002872D096F83E00012870D19B
:1022B000607D9DF8101060F300010491607D41087D
:1022C0009DF8100061F341000490607D81089DF845
:1022D000100061F382000490607DC1089DF8100039
:1022E00061F3C3000490607D01099DF8100061F363
:1022F00004100490607D0490607D81099DF81000B9
:1023000061F386100490607DC1099DF8100061F3AF
:10231000C71004909DF8100020F0020004909DF872
:102320001000617D60F3000161759DF810004108A7
:10233000607D61F3410060759DF810008108607D4B
:1023400061F3820060759DF81000C108607D61F343
:10235000C30060759DF810000109607D61F30410F1
:1023600060759DF810004109607D61F3451060754E
:102370009DF810008109607D61F3861060759DF8FD
:102380001000C109607D61F3C71060750BE01CE1AE
:10239000FFE7206805909DF8140020F004000590E8
:1023A0009DF8140020709DF80400C0F34000002840
:1023B00056D0607C00909DF8000020F080000090D6
:1023C0009DF8000060749DF8000020F080008030CF
:1023D00000909DF8000060749DF8040020F0020059
:1023E00001909DF80400217960F3000121719DF8AE
:1023F00004004108207961F3410020719DF8040038
:102400008108207961F3820020719DF80400C108E1
:10241000207961F3C30020719DF80400010920793F
:1024200061F3041020719DF804004109207961F3E3
:10243000451020719DF804008109207961F3861010
:1024400020719DF80400C109207961F3C710207143
:10245000306810B1288931688847002086F840002C
:1024600060789DF8081060F30001029160784108DF
:102470009DF8080061F341000290607881089DF8A2
:10248000080061F3820002906078C1089DF808009E
:1024900061F3C3000290607801099DF8080061F3C0
:1024A00004100290607841099DF8080061F345101E
:1024B0000290607881099DF8080061F3861002900F
:1024C0006078C1099DF8080061F3C71002909DF87B
:1024D000080020F0400002909DF8080020F0010064
:1024E00002909DF80800617860F3000161709DF82A
:1024F00008004108607861F3410060709DF80800B1
:102500008108607861F3820060709DF80800C1085E
:10251000607861F3C30060709DF80800010960787D
:1025200061F3041060709DF808004109607861F360
:10253000451060709DF808008109607861F386108D
:1025400060709DF80800C109607861F3C710607081
:102550009DF8040020F0040001909DF8040021790A
:1025600060F3000121719DF804004108207961F3B6
:10257000410020719DF804008108207961F38200F8
:1025800020719DF80400C108207961F3C300207117
:102590009DF804000109207961F3041020719DF871
:1025A00004004109207961F3451020719DF8040071
:1025B0008109207961F3861020719DF80400C1091A
:1025C000207961F3C710207193E16079039096F848
:1025D0003E00012831D1607D9DF8101060F30001AC
:1025E0000491607D41089DF8100061F34100049062
:1025F000607D81089DF8100061F382000490607D89
:10260000C1089DF8100061F3C3000490607D0109CA
:102610009DF8100061F304100490607D0490607DCB
:1026200081099DF8100061F386100490607DC10956
:102630009DF8100061F3C71004909DF80C00C0F3E2
:10264000400028B99DF81000C0F3800000287CD01D
:1026500096F83E00012879D1AA882B89D21A90B227
:10266000227EC2F1100291B2FEF760FC07464FF0E5
:1026700000080AE029892868405C20812889401CDC
:10268000288108F101001FFA80F8B845F2DB607D6F
:102690009DF8101060F300010491607D41089DF8E1
:1026A000100061F341000490607D81089DF81000E6
:1026B00061F382000490607DC1089DF8100061F311
:1026C000C3000490607D01099DF8100061F30410BF
:1026D0000490607D0490607D81099DF8100061F395
:1026E00086100490607DC1099DF8100061F3C71049
:1026F00004909DF8100020F0040004909DF8100054
:10270000617D60F3000161759DF810004108607DF6
:1027100061F3410060759DF810008108607D61F3F0
:10272000820060759DF81000C108607D61F3C300F0
:1027300060759DF810000109607D61F304106075FB
:102740009DF810004109607D01E019E011E061F39E
:10275000451060759DF810008109607D61F3861059
:1027600060759DF81000C109607D61F3C710607548
:1027700006E029892868405C20812889401C28813E
:1027800060789DF8081060F30001029160784108BC
:102790009DF8080061F341000290607881089DF87F
:1027A000080061F3820002906078C1089DF808007B
:1027B00061F3C3000290607801099DF8080061F39D
:1027C00004100290607841099DF8080061F34510FB
:1027D0000290607881099DF8080061F386100290EC
:1027E0006078C1099DF8080061F3C71002909DF858
:1027F000080020F0400002909DF8080020F0010041
:1028000002909DF80800617860F3000161709DF806
:1028100008004108607861F3410060709DF808008D
:102820008108607861F3820060709DF80800C1083B
:10283000607861F3C30060709DF80800010960785A
:1028400061F3041060709DF808004109607861F33D
:10285000451060709DF808008109607861F386106A
:1028600060709DF80800C109607861F3C71060705E
:102870009DF80400C0F38010D8B39DF8040020F048
:10288000040001909DF80400217960F3000121719A
:102890009DF804004108207961F3410020719DF802
:1028A00004008108207961F3820020719DF8040002
:1028B000C108207961F3C30020719DF8040001096B
:1028C000207961F3041020719DF8040041092079FA
:1028D00061F3451020719DF804008109207961F3AE
:1028E000861020719DF80400C109207961F3C7109A
:1028F000207106B0BDE8F08170B506460C4625464D
:1029000095F83F00302804D129463046FEF765FD92
:1029100003E029463046FFF77DFC70BD70B50646E2
:102920000C46254695F83F00302804D1294630460C
:10293000FFF702F80BE095F8400020B92946304631
:10294000FFF79FF903E029463046FFF791FA70BD83
:1029500070B506460D462C4694F83F0030280DD140
:1029600094F84000022804D121463046FEF735FD98
:102970001AE021463046FEF7DFFF15E094F84000EC
:1029800010B101280AD104E021463046FFF779F959
:1029900009E021463046FFF76BFA04E02146304655
:1029A000FFF738FC00BF00BF70BDFEB506460C4601
:1029B00000200290019000903046FEF79FFA0546F5
:1029C00005B10CB90420FEBDA08A012801D2042063
:1029D000F9E72068FEF70DFA0746042F01D204201C
:1029E000F1E7A06828B1208A18B1E06808B1608AD0
:1029F00008B90420E7E7002030707070707820F08C
:102A0000800080307070A07E10B1012805D100E0F8
:102A100000BFA07E85F83E0001E00420D3E700BFA0
:102A2000A07D10B101280DD105E09DF8080020F02F
:102A3000E000029008E09DF8080020F0E00020305F
:102A4000029001E00420BEE700BF2079012806D1F2
:102A50009DF8080020F00400001D029004E09DF89D
:102A6000080020F0040002909DF808003070207EDD
:102A700030B101280BD0022803D003280FD107E082
:102A800000BF9DF8080020F00800029009E000BF98
:102A90009DF8080020F008000830029001E00420B2
:102AA00091E700BF9DF8080020F00100401C029053
:102AB0009DF8080030709DF804007070A07D68BB20
:102AC000E07D20B102280DD0032824D116E09DF826
:102AD000000020F0080000909DF8000020F0100099
:102AE00000901AE09DF8000020F0080000909DF88A
:102AF000000020F01000103000900EE09DF8000063
:102B000020F00800083000909DF8000020F0100030
:102B10001030009001E0042055E700BF207E30B166
:102B2000012805D0022809D003280FD107E000BFF3
:102B30009DF8000020F04000009009E000BF9DF8E3
:102B4000000020F040004030009001E004203AE70F
:102B500000BFA079012806D19DF8000020F0800078
:102B60008030009004E09DF8000020F0800000908C
:102B70006079012806D19DF8000020F02000203067
:102B8000009004E09DF8000020F020000090607E9E
:102B9000052826D2DFE800F0030A11181E009DF870
:102BA000000020F00700401C00901CE09DF8000091
:102BB00020F00700801C009015E09DF8000020F038
:102BC0000700C01C00900EE09DF8000020F00700F8
:102BD000009008E09DF8000020F00700001D009024
:102BE00001E00420EFE600BF9DF80000307170792D
:102BF00020F080008030707195F83E00012803D1EC
:102C0000A18A3046FEF727FBA08AA887607E85F858
:102C10004100C7F30E00B081206A2860E069686057
:102C2000A0686862218A298500216985A985E985CE
:102C30002986698634204155E0682861618AA98225
:102C40000021E9822983698320204155002085F8ED
:102C50004000A07D18B9102085F83F0002E0112047
:102C600085F83F00FE493046FEF7DDF8FD49304665
:102C7000FEF7E9F829463046FEF705F9707820F0AE
:102C80000100401C7070707820F00200801C707091
:102C9000E06920B1707820F010001030707030467C
:102CA000FDF7E7FF3046FDF7F5FF00208BE670B536
:102CB00004462046FEF722F905460DB9042638E001
:102CC000607820F001006070607820F00200607091
:102CD0002046FDF7F0FF0020A08120706070607931
:102CE00020F08000803060710020607120712075BC
:102CF00000216175607820F080008030607020468F
:102D0000FEF791F800212046FEF79DF800212046AD
:102D1000FEF7A9F800212046FEF7B5F8002068620A
:102D2000286128606860E86085F8400085F83F0009
:102D30000026304670BD2DE9F04F87B004460D46A1
:102D40000020069005900490039002900190804628
:102D500081468246834600902046FEF7CFF806461D
:102D600006B11DB9042007B0BDE8F08FA88B01287B
:102D700001DA0420F7E7286928B1288B18B16869BF
:102D800008B1688B08B90420EDE72868FEF731F830
:102D90000746032F01D20420E5E700202070607071
:102DA000607820F080008030607095F8220010B1CB
:102DB000012806D100E000BF95F8220086F83E0009
:102DC00001E00420CFE700BFA87F10B101280DD19A
:102DD00005E09DF8140020F04000059008E09DF803
:102DE000140020F040004030059001E00420BAE7D4
:102DF00000BF9DF8180020F0E00040300690E87F0A
:102E000010B101280DD105E09DF8140020F020003C
:102E1000059008E09DF8140020F020002030059077
:102E200001E004209FE700BF2879012806D19DF822
:102E3000180020F00400001D069004E09DF8180022
:102E400020F0040006909DF818002070A87F30B98B
:102E50009DF8180020F00200801C069004E09DF808
:102E6000180020F0020006906879012806D19DF82C
:102E7000180020F008000830069004E09DF81800C3
:102E800020F0080006909DF8180020F00100401C7A
:102E9000069095F8200030B101280AD002280FD002
:102EA00003281BD113E09DF8100020F018000490B7
:102EB00016E09DF8100020F01800083004900FE094
:102EC0009DF8100020F018001030049008E09DF8E4
:102ED000100020F018001830049001E0042042E7B0
:102EE00000BF9DF8100020F0800004909DF81000B5
:102EF00020F0400004909DF80C0020F0100003909A
:102F000095F821000F2873D2DFE800F0080F161D96
:102F1000232A31383F4B5865738699009DF810007D
:102F200020F00700401C0490A3E09DF8100020F062
:102F30000700801C04909CE09DF8100020F0070022
:102F4000C01C049095E09DF8100020F0070004904C
:102F50008FE09DF8100020F00700001D049088E02D
:102F60009DF8100020F00700401D049081E09DF8BE
:102F7000100020F00700801D04907AE09DF81000FA
:102F800020F00700C01D049073E09DF8100020F0B1
:102F9000070004909DF8100020F04000403004909D
:102FA00067E09DF8100020F00700401C04909DF899
:102FB000100020F04000403004905AE09DF81000CE
:102FC00020F00700801C04909DF8100020F04000C5
:102FD000403004904DE09DF8100020F00700C01C28
:102FE00004909DF8100020F040004030049040E034
:102FF0003DE09DF8100020F00700001D04909DF8B2
:10300000100020F04000403004909DF80C0020F0AB
:103010001000103003902CE09DF8100020F0070005
:10302000401D04909DF8100020F0400040300490B6
:103030009DF80C0020F010001030039019E09DF86E
:10304000100020F00700801D04909DF8100020F073
:103050004000403004909DF80C0020F0100003E088
:10306000F10F00009F1100001030039001E00420D8
:1030700079E600BF9DF8180020709DF8140060707C
:103080009DF8100020719DF80C006071607920F0AF
:10309000800080306071A87F48B9E87F18B920208F
:1030A00086F83F000CE0282086F83F0008E0E87F23
:1030B00018B9222086F83F0002E02A2086F83F0057
:1030C000A86800287ED0E87F01287CD1F948844296
:1030D00002D0F9488442F8D1BDF8040020F0020083
:1030E000801C0190A87FC8B9BDF8040020F0010041
:1030F000401C0190A8688079BDF8041060F3881125
:103100000191A868B0F80290A86890F804A0A86897
:1031100090F805B0292086F83F000BE0A8680078F9
:1031200028B9BDF8040020F02000203001902B20A9
:1031300086F83F00BDF80400218E60F3000121866F
:10314000BDF804004108208E61F341002086BDF8DF
:1031500004008108208E61F382002086BDF80400FF
:10316000C108208E61F3C3002086BDF80400010968
:10317000208E61F304102086BDF804004109208EE2
:1031800061F345102086BDF804008109208E61F3AB
:1031900088102086BDF80400410A208E61F3492082
:1031A0002086BDF80400810A208E61F38B202086E2
:1031B000BDF80400010B208E61F30D302086BDF8B0
:1031C000040001E00CE04BE0810B208E61F38F30B6
:1031D0002086A4F8209084F81CA084F81DB073E029
:1031E000E868E8B3E8684088D0B3A87FC0BBE86867
:1031F000B0F80280E8680079BDF8081060F3440177
:103200000291E8680078012808D1BDF8080020F094
:10321000400040300290E86840790090BDF8080016
:10322000A18C60F30001A184BDF808004108A08CC6
:1032300061F34400A084BDF808004109A08C61F34B
:103240004510A084BDF808008109A08C61F38610A8
:10325000A084BDF80800C109A08C61F3C71000E08C
:1032600032E0A084BDF80800010AA08C61F30820B8
:10327000A084BDF80800410AA08C61F34A20A08414
:10328000BDF80800C10AA08C61F3CB20A084BDF872
:103290000800010BA08C61F30C30A084BDF808007D
:1032A000410BA08C61F34D30A084BDF80800810B68
:1032B000A08C61F38F30A084A4F82C80009884F84F
:1032C0003C00212086F83F0096F83E00012803D1FB
:1032D000A98B2046FDF7BFFFA88BB08795F821008A
:1032E00086F84100C7F30E00A081A86A3060686AC2
:1032F000706028697062298B318500217185B185E4
:10330000F185318671863420815568693061698B19
:10331000B1820021F1823183718320208155002008
:1033200086F8400065492046FDF77DFD644920464A
:10333000FDF789FD63492046FDF795FD314620469E
:10334000FDF7A1FD607820F00100401C60706078FE
:1033500020F00200801C6070686A20B1607820F064
:103360001000103060702046FDF783FC2046FDF70A
:1033700091FC0020F7E470B504462046FDF7BEFD41
:1033800005460DB904263FE0607820F0010060702A
:10339000607820F0020060702046FDF78CFC002071
:1033A000A08120706070607920F0800080306071B2
:1033B000002060712071207500216175A084208635
:1033C000A085A083208484F83C00607820F08000F1
:1033D000803060702046FDF726FD00212046FDF775
:1033E00032FD00212046FDF73EFD00212046FDF77D
:1033F0004AFD00206862286128606860E86085F8FE
:10340000400085F83F000026304670BD2DE9F84F9A
:1034100004460F4690461E462046FDF76FFD0546C2
:1034200025B117B9B8F1000F00D016B90420BDE8D6
:10343000F88F20780221B1EB501F01D00620F6E76B
:1034400095F84100032801DD0120F0E795F83F00E1
:1034500021281FD0292837D1FF2E01D90420E6E7E3
:10346000607820F00100607084F83C600A980128C0
:1034700006D1208E20F4007000F50070208603E055
:10348000208E20F400702086607820F00100401C1F
:1034900060701AE0607820F001006070A08C20F06D
:1034A0000100401CA084607820F00100401C607086
:1034B0000BE000000086034000870340F10F00008E
:1034C0009F1100001D12000000BF00BF686818B106
:1034D000607820F0100060704FF0000AD14631E0B3
:1034E00001E001F096FA6079C0F340000028F8D0BE
:1034F0004FF0000B0FB117F80AB0A4F808B00AF1AA
:1035000001001FFA80FA00BF607900909DF800006A
:1035100000F004000028F7D09DF8000000F008003B
:1035200020B1607920F0800080306071208900F047
:10353000FF0BB8F1000F01D008F809B009F1010044
:103540001FFA80F9B145CBD195F83F00212812D15F
:103550000CE0607820F001006070A08C20F0010089
:10356000A084607820F00100401C6070607900F059
:1035700001000028EDD0686820B1607820F01000CC
:1035800010306070002052E7FEB506460D46002060
:103590000290019000903046FDF7B0FC044604B163
:1035A0000DB90420FEBD2868FDF723FC0746032F54
:1035B00001D20420F6E7A86828B1288A18B1E86883
:1035C00008B1688A08B90420ECE7287E10B1012808
:1035D00005D100E000BF287E84F83E0001E0042011
:1035E000E0E700BF002030707070707820F080003D
:1035F000803070709DF8080020F0E000603002908C
:103600009DF8080020F00100401C0290287D10B1B8
:1036100001280DD105E09DF8040020F04000019044
:1036200008E09DF8040020F040004030019001E0E7
:103630000420B7E700BF287D002871D1687D30B134
:1036400001280FD0022819D0032830D122E09DF89C
:10365000080020F0080002909DF8000020F04000D3
:10366000009026E09DF8080020F008000830029045
:103670009DF8000020F0400000901AE09DF808003E
:1036800020F0080002909DF8000020F0400040303B
:1036900000900EE09DF8080020F00800083002902D
:1036A0009DF8000020F040004030009001E0042030
:1036B00078E700BFA87D30B101280AD002280FD0DA
:1036C00003281BD113E09DF8000020F00C000090AF
:1036D00016E09DF8000020F00C00001D00900FE0A7
:1036E0009DF8000020F00C000830009008E09DF8E4
:1036F000000020F00C000C30009001E0042051E7A5
:1037000000BFE87D30B101280BD0022810D003287B
:103710001CD114E09DF8000020F00300009017E099
:1037200017E09DF8000020F00300401C00900FE01F
:103730009DF8000020F00300801C009008E09DF838
:10374000000020F00300C01C009001E0042029E7E5
:1037500000BF6879012806D19DF8000020F0100014
:103760001030009004E09DF8000020F01000009060
:1037700094F83E00012803D101213046FDF76BFD8E
:103780000120A087032084F84100C7F30E00B08118
:10379000286A2060E8696060686AE060A868606222
:1037A000298A218500216185A185E185218661869F
:1037B00034200155E8682061698AA1820021E182F4
:1037C0002183618320200155002084F84000287D5A
:1037D00018B9402084F83F0002E0412084F83F00FF
:1037E000FE493046FDF71FFBFD493046FDF72BFB38
:1037F000FC493046FDF737FB21463046FDF743FBD9
:103800009DF8080030709DF8040070709DF800006D
:103810003071707820F00100401C7070707820F0DA
:103820000200801C7070E86920B1707820F01000F0
:10383000103070703046FDF71CFA3046FDF72AFA5A
:103840000020AFE670B50546287800F0E00060285B
:1038500001D0062403E02846FFF729FA0446204653
:1038600070BD70B504462046FDF748FB06460EB90C
:10387000042516E0207800F0E000602803D160788D
:10388000C0F3801008B106250BE0607900F001005C
:1038900008B9052505E0607820F020002030607030
:1038A0000025284670BD2DE9F04104460E4620460D
:1038B000FDF724FB07460FB904250CE0207800F043
:1038C000E000602803D16078C0F3801008B90625B5
:1038D00001E0A68100252846BDE8F0812DE9F047EA
:1038E0008246884616465046FDF708FB054615B148
:1038F000B8F1000F02D14FF0040917E04FF00009B2
:10390000A6B1E88A841B002C01DAA88A04440027A7
:103910000AE02869005D08F80700641CA88AA04234
:1039200000DA0024781C87B2B742F2DB4846BDE8D3
:10393000F08770B504462046FDF7E0FA06460EB95A
:10394000042504E0607820F010006070002528460F
:1039500070BD2DE9FF4704460F46002003900290FA
:103960000190009081462046FDF7C8FA054605B152
:103970001FB9042004B0BDE8F0873868FDF746FAA7
:103980008046B8F1000F01D10420F3E7F87910B1B7
:10399000012805D100E000BFF87985F83E0001E07C
:1039A0000420E7E700BF387910B1012808D100E012
:1039B00000BF9DF80C0020F0E0008030039001E093
:1039C0000420D7E700BFFDF7B5F9064686498E42C9
:1039D00002D24FF000096DE08448864202D24FF0D7
:1039E000010967E08248864202D24FF0020961E095
:1039F0008048864202D24FF003095BE07E4886424F
:103A000002D24FF0040955E07C48864202D24FF0C2
:103A100005094FE07A48864202D24FF0060949E094
:103A20007848864202D24FF0070943E07648864242
:103A300002D24FF008093DE07448864202D24FF0AE
:103A4000090937E07248864202D24FF00A0931E094
:103A50007048864202D24FF00B092BE06E48864236
:103A600002D24FF00C0925E06C48864202D24FF09A
:103A70000D091FE06A48864202D24FF00E0919E094
:103A80006848864202D24FF00F0913E0664886422A
:103A900002D24FF010090DE06448864202D24FF086
:103AA000110907E06248864202D24FF0120901E094
:103AB00007205FE75F48844202D05F4884422DD1EF
:103AC000B87910B1012826D110E05A48844206D1B5
:103AD0005A48006820F080505849086005E057486F
:103AE000006820F000505549086016E051488442B3
:103AF00008D15248006820F0805000F180504F49B2
:103B0000086007E04D48006820F0005000F10050C8
:103B10004A49086001E004202CE700BF9DF8080036
:103B200020F02000203002903879012817D19DF82C
:103B3000080020F00800083002909DF8080020F0EE
:103B40000400001D029079799DF8040061F30600DD
:103B500001909DF8040020F08000803001909DF8D5
:103B6000000020F07F007F3000909DF8000020F0E2
:103B70008000803000909DF80C0020700020607460
:103B800095F83E00012803D110212046FDF763FB84
:103B90000020A887032085F84100F8682860B868ED
:103BA000686000206862002129856985A985E9850A
:103BB000298669863420415500202861A982E9823E
:103BC0002983698320204155002085F840003879F9
:103BD000B0BB302085F83F00002032E0F10F00003C
:103BE0009F1100001D120000005A6202008793031B
:103BF00000B4C40400E1F505000E2707003B580897
:103C0000006889090095BA0A00C2EB0B00EF1C0D91
:103C1000001C4E0E00497F0F0076B01000A3E1118A
:103C200000D0121300FD4314002A75150057A61684
:103C30000084D717008303400087034040F6064006
:103C400001E0A86004E0312085F83F003869A860F1
:103C5000F7492046FDF7E7F8F6492046FDF7F3F867
:103C6000F5492046FDF7FFF829462046FDF70BF9F8
:103C7000C8F30E00A08184F81C909DF808006178BC
:103C800060F3000161709DF808004108607861F3FD
:103C9000410060709DF808008108607861F382003F
:103CA00060709DF80800C108607861F3C30060701F
:103CB0009DF808000109607861F3041060709DF8B8
:103CC00008004109607861F3451060709DF80800B4
:103CD0008109607861F3861060709DF80800C10961
:103CE000607861F3C71060709DF8040020749DF83F
:103CF000000060742046FCF7BCFF2046FCF7CAFFBA
:103D0000002037E670B504462046FDF7F7F8054673
:103D10000DB9042630E0607C20F0800060742046FD
:103D2000FCF7C9FF002020706070607920F08000EF
:103D300080306071002060712071207500216175F4
:103D400020772046FDF76FF800212046FDF77BF82D
:103D500000212046FDF787F800212046FDF793F863
:103D600000206862286128606860A860E86085F8C3
:103D7000400085F83F000026304670BD1FB5024662
:103D800053789DF8084063F30004029453785C086C
:103D90009DF8083064F34103029353789C089DF822
:103DA000083064F3820302935378DC089DF80830EE
:103DB00064F3C303029353781C099DF8083064F33D
:103DC0000413029353785C099DF8083064F345139B
:103DD000029353789C099DF8083064F3861302938C
:103DE0005378DC099DF8083064F3C71302939DF8FB
:103DF0000830C3F38013002B7ED09DF80830DB0918
:103E0000002B79D19DF8083023F020032033029352
:103E10009DF8083023F0400302939DF80830547851
:103E200063F3000454709DF808305C08537864F321
:103E3000410353709DF808309C08537864F3820363
:103E400053709DF80830DC08537864F3C303537053
:103E50009DF808301C09537864F3041353709DF8DF
:103E600008305C09537864F3451353709DF80830AB
:103E70009C09537864F3861353709DF80830DC096D
:103E8000537864F3C713537013799DF8044063F3B8
:103E90000004019413795C089DF8043064F3410335
:103EA000019313799C089DF8043064F38203019315
:103EB0001379DC089DF8043064F3C303019313798C
:103EC0001C099DF8043064F30413019313795C0911
:103ED0009DF8043064F34513019313799C099DF810
:103EE000043064F3861301931379DC099DF80430E0
:103EF00064F3C713019300E094E09DF80430C3F32A
:103F00000013002B73D091F83E30012B71D1537DFB
:103F10009DF8004063F300040094537D5C089DF815
:103F2000003064F341030093537D9C089DF80030FA
:103F300064F382030093537DDC089DF8003064F342
:103F4000C3030093537D1C099DF8003064F30413F0
:103F50000093537D0093537D9C099DF8003064F3DA
:103F600086130093537DDC099DF8003064F3C7137A
:103F700000939DF8003023F002039B1C00939DF8F2
:103F80000030547D63F3000454759DF800305C08E4
:103F9000537D64F3410353759DF800309C08537DB5
:103FA00064F3820353759DF80030DC08537D64F39D
:103FB000C30353759DF800301C09537D64F304134B
:103FC00053759DF800305C09537D64F345135375B8
:103FD0009DF800309C09537D64F3861353759DF85A
:103FE0000030DC09537D64F3C713537518E00CE00F
:103FF000FFE7136803939DF80C3023F004031B1DA7
:1040000003939DF80C3013700AE0136803939DF836
:104010000C3023F00803083303939DF80C30137021
:10402000002003E0002381F84030062004B010BDDA
:10403000F92800001D29000051290000F8B50446A8
:104040000925FCF777FE0A21B0FBF1F6002000906D
:1040500007E094F8400008B9002505E00098401CEE
:1040600000900098B042F4D300BF002084F84000D4
:104070002846F8BD024692F840300BB900200AE00D
:104080000520936B5B1C9363936B8B4203D30920D6
:10409000002382F8403070472DE9FE4F04468946E0
:1040A00092461F46DDF830B02046FCF727FF054654
:1040B0001DB1BAF1000F00D017B94FF0040847E165
:1040C00095F8400010B14FF0050841E14FF00008AD
:1040D00038880028F3D005F12406C6F800A03888F7
:1040E000B08000203081022085F8400095F83F0024
:1040F00030287CD14FEA49604FEA106900BFA4F82C
:10410000089060789DF8041060F3000101916078D8
:1041100041089DF8040061F3410001906078810836
:104120009DF8040061F3820001906078C1089DF859
:10413000040061F3C3000190607801099DF8040058
:1041400061F304100190607841099DF8040061F367
:1041500045100190607881099DF8040061F3861094
:1041600001906078C1099DF8040061F3C7100190C7
:104170009DF8040020F08000803001909DF804003C
:1041800020F02000203001909DF8040020F0040071
:10419000001D01909DF8040020F0400001909DF862
:1041A000040020F0100001909DF80400617860F395
:1041B000000161709DF804004108607861F34100DE
:1041C00060709DF804008108607861F3820060707F
:1041D0009DF80400C108607861F3C30060709DF829
:1041E00004000109607861F30410607000E097E05A
:1041F0009DF804004109607861F3451060709DF8F6
:1042000004008109607861F3861060709DF80400F5
:10421000C109607861F3C710607095F83E0001280D
:1042200070D1607D9DF8001060F300010091607D09
:1042300041089DF8000061F341000090607D810815
:104240009DF8000061F382000090607DC1089DF838
:10425000000061F3C3000090607D01099DF800003B
:1042600061F304100090607D0090607D81099DF8ED
:10427000000061F386100090607DC1099DF8000088
:1042800061F3C71000909DF8000020F00200801C30
:1042900000909DF80000617D60F3000161759DF85C
:1042A00000004108607D61F3410060759DF80000E9
:1042B0008108607D61F3820060759DF80000C1088F
:1042C000607D61F3C30060759DF800000109607DA9
:1042D00061F3041060759DF800004109607D61F391
:1042E000451060759DF800008109607D61F38610BE
:1042F00060759DF80000C109607D61F3C7106075AD
:104300000BE0FFE7206802909DF8080020F0040011
:10431000001D02909DF8080020704FF0000804E096
:1043200029462046FFF72AFD8046B8F1000F0FD13D
:10433000BBF1000F02D10020A86309E02846FFF777
:104340007DFE8046308908B94FF0090830893880F1
:104350004046BDE8FE8F2DE9FF4F81B004468A46F6
:1043600098462046FCF7CAFD054625B1039810B1D2
:10437000B8F1000F01D10426E3E095F8400008B140
:104380000526DEE005F1100703983860B8F8000054
:10439000B8800020F880012085F8400095F83F00A3
:1043A00030287DD195F83E00012807D1B8880F212B
:1043B000FCF7BCFD814684F8199001E04FF000093C
:1043C0004FEA4A604FEA106A4AF0010AA4F808A0CE
:1043D0004FF0000B05E0002020810BF101001FFAD7
:1043E00080FBCB45F7DB60789DF8001060F300019F
:1043F0000091607841089DF8000061F34100009051
:10440000607881089DF8000061F382000090607878
:10441000C1089DF8000061F3C300009060780109B5
:104420009DF8000061F304100090607841099DF848
:10443000000061F345100090607881099DF800004C
:1044400061F3861000906078C1099DF8000061F367
:10445000C71000909DF8000020F020002030009050
:104460009DF8000020F01000103000909DF8000032
:1044700020F00400001D00909DF8000020F0400096
:1044800000909DF8000020F0010000909DF80000D1
:1044900020F08000803000909DF80000617800E0FE
:1044A00035E060F3000161709DF80000410860781C
:1044B00061F3410060709DF800008108607861F34D
:1044C000820060709DF80000C108607861F3C3004D
:1044D00060709DF800000109607861F3041060705D
:1044E0009DF800004109607861F3451060709DF807
:1044F00000008109607861F3861060709DF800000B
:10450000C109607861F3C7106070002604E0294695
:104510002046FFF733FC06469EB90E9810B90020DE
:10452000A8630EE02846FFF789FD06460EB9F88815
:1045300020B90020A8F80000092602E0F888A8F8B1
:104540000000304605B0BDE8F08F2DE9F041074688
:1045500088463846FCF7D2FC04460CB9042519E01D
:1045600094F84000022804D094F8400008B10625D1
:1045700010E004F12406002594F84000022809D137
:1045800041462046FFF776FD0546052D02D03089CD
:1045900000B909252846BDE8F0812DE9F04107461C
:1045A00088463846FCF7AAFC05460DB904241AE0F3
:1045B00095F84000012804D095F8400008B1062481
:1045C00011E0002495F8400001280CD1414628460E
:1045D000FFF750FD0446052C05D005F110060CB977
:1045E000F08800B909242046BDE8F0812DE9F84F94
:1045F0000446894617469A462046FCF77FFC064645
:1046000016B1B9F1000F02D10420BDE8F88F0FB93F
:104610000020FAE796F8400008B10520F5E706F11A
:104620002405BAF1000F06D1A8886989401AB8425A
:1046300001DA0820E9E7022086F84000EF81002037
:10464000A88196F83F0021280DD1607820F0010064
:104650006070A08C20F00100401CA084607820F0E5
:104660000100401C607097E0306890B16079C0F341
:1046700040000090009860B196F83E00012804D1F7
:10468000607D20F00201617503E0607820F0080091
:104690006070A9886A89891A88B23946FCF746FC95
:1046A000804696F83F00292804D1B8F1FF0F01D9C0
:1046B0004FF0FF084FF0000B0FE019F80B00EA88ED
:1046C00029688854E888401CE880E888A9888842DE
:1046D00001D10020E8800BF1010BC345EDD36889BF
:1046E00040446881A7EB080087B296F83F0029286C
:1046F00019D1607820F00100607084F83C8017B90F
:104700000A98012806D1208E20F4007000F5007070
:10471000208603E0208E20F400702086607820F050
:104720000100401C6070306878B196F83E000128A6
:1047300005D1607D20F00200801C60752CE060785F
:1047400020F008000830607026E007E06079C0F3D0
:10475000400018B131462046FCF7EEFB688900287E
:10476000F4D1CFB996F83F00212812D100BF60796B
:1047700000F001000028FAD0607820F0010060709D
:10478000A08C20F00100A084607820F00100401C83
:104790006070002086F84000002F3FF665AFBAF148
:1047A000010F06D101E000F034F996F8400000282E
:1047B000F9D1002029E72DE9FF4F83B004461746C1
:1047C0009A460FB1002038802046FCF797FB05463B
:1047D00015B1049800B11FB9042007B0BDE8F08FEF
:1047E00095F8400008B10520F7E7D046BAF1000877
:1047F00001D10020F1E705F1100695F83E000128EF
:1048000007D1BAF1100F02D284F819A001E01021EB
:104810006176686840B16078C0F3001020B96078B4
:1048200020F0100010306070C6E01098012841D1CF
:104830003CE06868B8BB60790190029095F83F0051
:1048400000F0F000102804D0202808D0402812D111
:104850000BE09DF8040000F0380001900EE09DF898
:10486000040000F00800019008E09DF8040000F04A
:104870001800019002E00020019000BF00BF9DF8E9
:10488000040030B1607920F0800080306071012038
:10489000A3E79DF8080000F0040038B1294620463F
:1048A000FCF7FEFB02E0FFE700F0B3F87089002898
:1048B000BFD03CE06868B0BB60790190029095F889
:1048C0003F0000F0F000102804D0202808D0402835
:1048D00012D10BE09DF8040000F0380001900EE0CA
:1048E0009DF8040000F00800019008E09DF8040025
:1048F00000F01800019002E00020019000BF00BF0E
:104900009DF8040030B1607920F080008030607143
:10491000012062E79DF8080000F0040018B1294664
:104920002046FCF7BDFB708908B9002055E7607888
:1049300020F01000607070894146FCF7F7FA81465C
:10494000B9F1000F1BD0B7F800B010E03189306822
:10495000415C049800F80B103089401C308130898C
:10496000B188884201D1002030810BF1010B3888D9
:1049700048445845EAD87089A0EB0900708138880E
:1049800048443880A8EB09001FFA80F895F83E00EB
:1049900001280AD1B8F1100F07D2B8F1000F02D1E7
:1049A0000121617601E084F81980686820B160789F
:1049B00020F0100010306070B8F1000F3FF635AFF6
:1049C00000200AE72DE9F04107460E461446384616
:1049D000FCF794FA054615B90420BDE8F08116B13C
:1049E000012E08D103E005F11000206005E005F17B
:1049F0002400206001E00420EFE700BF0020ECE786
:104A000002E0002200F8012B0A1EA1F10101F8D1F9
:104A100070477047DFF83000016841F470010160B1
:104A20000A4880470A480047FEE7FEE7FEE7FEE740
:104A3000FEE7FEE7FEE7FEE7FEE7FEE7054806497C
:104A4000044A064B7047000088ED00E0114B00005F
:104A500041020000C00AFD1FC00CFD1FC00AFD1F5F
:104A60005E4A1268C2F34212062A1DD2DFE802F043
:104A70000305071C17195A4818E0594816E0574A09
:104A8000D26B02F03F02521C554B02FB03F1534A1A
:104A9000926BC2F30312521CB1FBF2F006E05148D4
:104AA00004E04FF4004001E0002000BF00BF4B4A8B
:104AB000126902F00702072A24D2DFE802F0040795
:104AC0000B11151B1F00484A10601FE04208464B9F
:104AD0001A601BE00322B0FBF2F2434B1A6015E0B0
:104AE0008208414B1A6011E00622B0FBF2F23E4B05
:104AF0001A600BE0C2083C4B1A6007E002093A4B0F
:104B00001A6003E00022384B1A6000BF00BF7047F4
:104B1000364837490860C04308600020354988603E
:104B200001208107486100202C490861012048616B
:104B3000802088618120C86183200862002088620B
:104B40005C2008630846006840F00200086000BF6F
:104B50002248406800F002000028F9D000201F49D8
:104B60004863012088633120C8630846006840F02C
:104B70001000086000BF1948406800F010000028CD
:104B8000F9D01648006840F040001449086000BFA2
:104B90001248006800F0E000174908700F484068AC
:104BA00000F0E00009788842F2D114480068C0F3B0
:104BB000090040F2FF3188420ED00C48C01C104959
:104BC000C8600E480068000C08724FF08040D0F8B2
:104BD000000188800020C86070470000000001408C
:104BE00000093D00A08601009C00FD1F51E5CC1A84
:104BF000001C014000100140A000FD1F000100400A
:104C000000E0024010B5431C02E010F8011B71B136
:104C10008107FAD14FF0013202C88C1A8C4314EA92
:104C2000C211F9D0C01A0A0603D0C01E10BDC01AA6
:104C300010BD0A0401D0801E10BD0902FCD0401E28
:104C400010BD704770477047754600F02BF8AE46B0
:104C500005006946534620F00700854618B020B588
:104C6000FFF7ECFEBDE820404FF000064FF00007D4
:104C70004FF000084FF0000B21F00701AC46ACE804
:104C8000C009ACE8C009ACE8C009ACE8C0098D4671
:104C9000704710B50446AFF300802046BDE81040D1
:104CA000FBF717BB004870475C0AFD1F014918203D
:104CB000ABBEFEE72600020070474FF04070E1EE09
:104CC000100A7047E44C00000000FD1FA400000023
:104CD0007C020000884D0000A400FD1F1C0C000099
:104CE000980200000000000000000000000000002A
:104CF00000000000000000000000000000000000B4
:104D000000000000000000000000000000000000A3
:104D10000000000000000000000000000000000093
:104D200000000000008003400000000000000000C0
:104D300000000000000000000080034000000000B0
:104D40000000000000000000000000000000000063
:104D50000000000000000000000000000000000053
:104D60000000000000000000000000000000000043
:104D70000000000000000000000000000000000033
:084D800000C2EB0B0000000073
:0400000500000241B4
:00000001FF
